:100000000C940C050C9453050C9453050C94530557
:100010000C9453050C9453050C9453050C94530500
:100020000C9453050C9453050C94642A0C94362BB1
:100030000C9455230C9453050C9453050C945305C0
:100040000C9453050C9453050C9453050C945305D0
:100050000C9453050C94BD230C9453050C94530538
:100060000C9453050C9453050C9453050C945305B0
:100070000C9453050C9453050C9453050C945305A0
:100080000C9453050C9453050C9453050C94530590
:100090000C9453050C9453050C9453050C94530580
:1000A0000C9453050C9453050C945305E907EB0786
:1000B000F607ED07EF07F107F307F507F807FA076B
:1000C000FC070708FE0700080208040806080908DC
:1000D0003219321964196419A419FC1AFC1AFC1A91
:1000E000C219FC1A5B1A5B1ACB1AD41AFC1AF51A3D
:1000F000681A681A681A681A681A681A681A681AF0
:10010000681A681A681A681A681A681A681A681ADF
:10011000771A851A8C1A931A9D1A891B891B9B1BA7
:100120009B1B921B9B1B9B1B9B1B891B891B971B50
:100130009B1B9B1B971BA32BCA2BC22CCA2BC22C0D
:10014000162C392CC22C902C9F2C2B0014001A003A
:100150000800150017001C0018000C001200130006
:100160002A00290004001600070009000A000B00FD
:100170000D000E000F0033003400E1001D001B00D5
:100180000600190005001100100036003700380085
:100190003500E3004A003900E200E0002C000000D6
:1001A0000000510052002800010035021E021F020B
:1001B0002002210222022302240225022602270213
:1001C00001000100AB00AA00A900A8000100010085
:1001D0002D022E022F023002310201000100010027
:1001E00001000100010001005000510052004F00C9
:1001F00001000100010001000100010001000000F8
:10020000010001000100010001003A003B003C0038
:100210003D003E003F0040004100420043004400DA
:100220004500010049004A004B00460047004800D5
:100230002D002E002F003000310001004C004D0039
:100240004E00530001000100010001000100010007
:100250000100010001000100010001000100000097
:10026000010001000100010001000100005C015CCF
:100270000100010001000100010001000100010076
:1002800066000100BF5CC05C0100010001000100CC
:10029000010001000100010001000100C25CC55C19
:1002A000C65CC35CC75CC85C0100010001000100C2
:1002B0000100010001000100010001000100000037
:1002C0000100010001000100010044454255473A88
:1002D0002064697361626C65642E0A00444542556E
:1002E000473A20656E61626C65642E0A000A00253B
:1002F00030313662003A200025303258000A722F21
:100300006320303132333435363738394142434453
:1003100045460A007267626C696768742074696D8B
:1003200065722064697361626C652E0A007267628F
:100330006C696768742074696D657220656E6162AE
:100340006C65642E0A007267626C6967687420735A
:10035000657420687376205B4E4F454550524F4D73
:100360005D3A2025752C25752C25750A007267626B
:100370006C696768742073657420687376205B45C8
:100380004550524F4D5D3A2025752C25752C25750D
:100390000A007267626C69676874207261696E62D4
:1003A0006F7720736574206873763A2025642C2556
:1003B000642C25642C25750A007267626C69676875
:1003C000742064697361626C65205B454550524FCF
:1003D0004D5D3A207267626C696768745F636F6E27
:1003E0006669672E656E61626C65203D2025750A21
:1003F000007267626C6967687420656E61626C6523
:10040000205B454550524F4D5D3A207267626C69E2
:100410006768745F636F6E6669672E656E61626C94
:1004200065203D2025750A007267626C69676874F3
:1004300020746F67676C65205B454550524F4D5D7A
:100440003A207267626C696768745F636F6E666991
:10045000672E656E61626C65203D2025750A00720D
:1004600067626C69676874206D6F6465205B4E4FCE
:10047000454550524F4D5D3A2025750A007267621E
:100480006C69676874206D6F6465205B45455052E8
:100490004F4D5D3A2025750A007267626C69676886
:1004A000745F696E6974207267626C696768745FF3
:1004B000636F6E6669672E6D6F6465203D20302E18
:1004C0002057726974652064656661756C74207666
:1004D000616C75657320746F20454550524F4D2EE9
:1004E0000A007267626C696768745F696E6974207C
:1004F0006565636F6E666967206973206E6F74202F
:10050000656E61626C65642E0A007267626C696771
:1005100068745F696E6974207374617274210A0073
:100520007267626C696768745F696E697420636181
:100530006C6C65642E0A007267626C696768745F30
:10054000636F6E6669672E7370656564203D202554
:10055000640A007267626C696768745F636F6E66D5
:1005600069672E76616C203D2025640A00726762FF
:100570006C696768745F636F6E6669672E73617418
:10058000203D2025640A007267626C696768745FA9
:10059000636F6E6669672E687565203D2025640A65
:1005A000007267686C696768745F636F6E6669671D
:1005B0002E6D6F6465203D2025640A007267626CB1
:1005C000696768745F636F6E6669672E656E6162E6
:1005D0006C65203D2025640A007267626C6967685B
:1005E000745F636F6E666967206570726F6D0A0075
:1005F00000047F3F1F643214643214783C1E1E14C2
:100600000A052223252628292A2C2D2F303233357E
:1006100036383A3B3D3E4042434547494A4C4E50AE
:1006200051535557595A5C5E6062646668696B6DD8
:100630006F71737577797B7D7F81838587898A8CDC
:100640008E90929496989A9C9E9FA1A3A5A7A8AAE3
:10065000ACAEAFB1B3B4B6B8B9BBBCBEBFC1C2C318
:10066000C5C6C7C9CACBCCCDCED0D1D2D2D3D4D5B2
:10067000D6D7D7D8D9D9DADADBDBDBDCDCDCDCDCDB
:10068000DDDDDDDDDCDCDCDCDCDBDBDBDADAD9D9B3
:10069000D8D7D7D6D5D4D3D2D2D1D0CECDCCCBCA41
:1006A000C9C7C6C5C3C2C1BFBEBCBBB9B8B6B4B367
:1006B000B1AFAEACAAA8A7A5A3A19F9E9C9A9896FD
:1006C0009492908E8C8A89878583817F7D7B7977D0
:1006D0007573716F6D6B6968666462605E5C5A59B0
:1006E00057555351504E4C4A4947454342403E3D71
:1006F0003B3A3836353332302F2D2C2A29282625FF
:100700002322FFAA7F5540000000000000000000E7
:1007100000010101010101010101020202020202C4
:100720000202030303030303030404040404050592
:100730000505050606060606070707070808080850
:100740000909090A0A0A0B0B0B0C0C0C0D0D0D0EF6
:100750000E0E0F0F10101011111212131314141586
:100760001516161717181819191A1A1B1C1C1D1DF7
:100770001E1F1F2021212223232425252627282848
:10078000292A2B2C2C2D2E2F303131323334353673
:100790003738393A3B3C3D3E3F4041424344454671
:1007A0004748494B4C4D4E4F50525354555758594A
:1007B0005A5C5D5E606163646567686A6B6C6E6FEE
:1007C0007172747677797A7C7D7F8182848687895D
:1007D0008B8D8E9092949597999B9D9FA1A2A4A694
:1007E000A8AAACAEB0B2B4B6B9BBBDBFC1C3C5C890
:1007F000CACCCED0D3D5D7DADCDEE1E3E6E8EAED49
:10080000EFF2F4F7F9FCFF0A002530325820006BB4
:100810006579626F6172645F7265706F72743A209D
:10082000000A0025303258006B6579626F6172648E
:100830005F7365745F6C65643A20006261636B6C22
:100840006967687420737465703A2025750A0062C0
:1008500061636B6C696768742064697361626C655D
:100860000A006261636B6C6967687420656E61621F
:100870006C650A006261636B6C6967687420746FF1
:1008800067676C653A2025750A006261636B6C6965
:100890006768742064656372656173653A202575C5
:1008A0000A006261636B6C6967687420696E6372C9
:1008B000656173653A2025750A005B735D004B65C1
:1008C00079626F6172642073746172742E0A005BC6
:1008D000575D005B535D005B525D005B445D005BF8
:1008E000435D0004033000000012034E0049005530
:1008F0000020004D0069006E006900000010034BED
:100900000042004400460061006E007300000004D5
:1009100003090409025B00030100A0FA09040000B6
:100920000103010100092111010001224000070516
:10093000810308000A0904010001030000000921E5
:10094000110100012236000705820320000A090474
:10095000020002030000000921110100012222000F
:10096000070583032000010705030320000112018E
:10097000100100000008EDFE6060010001020301AB
:100980000631FF0974A1010975150026FF009520A5
:10099000750881020976150026FF009520750891DB
:1009A00002C005010980A10185031601002603008C
:1009B0001A81002A8300751095018100C0050C0979
:1009C00001A1018504160100269C021A01002A9C3F
:1009D00002751095018100C005010906A1010507F6
:1009E00019E029E715002501950875018102950197
:1009F0007508810105081901290595057501910200
:100A00009501750391010507190029FF150026FFBF
:100A100000950675088100C011241FBECFEFDAE0F3
:100A2000DEBFCDBF04B603FE27C080915702909170
:100A30005802A0915902B0915A028730904BA740BA
:100A4000B04BD1F4109257021092580210925902F2
:100A500010925A0214BE84B7877F84BF0FB6F894F1
:100A6000A89580916000886180936000109260007A
:100A70000FBEE0E0F8E3099511E0A0E0B1E0E4EAA0
:100A8000FBE502C005900D92A236B107D9F722E02E
:100A9000A2E6B1E001C01D92A735B207E1F70E94BE
:100AA00083270C94D02D0C940000FF93EF93E091DA
:100AB0006201F0916301309709F00995EF91FF9180
:100AC0000895FC018591803011F0EFDFFBCF089590
:100AD000FF27E0E230E247FF0CC0419597FF09C0D5
:100AE000EDE26095709580959095611D711D811D59
:100AF000911D27FF02C0219530E350E2AA27660F1F
:100B0000771F881F991FAA1FA41710F0A41B6395B5
:100B10005A95A9F7AA3008F0A95FA05DAF93F395A5
:100B2000611571058105910541F7ED3211F4EF93DF
:100B3000F395F21718F43F93F395FBCF8F91B5DF40
:100B4000FA95E1F70895E991F9918591803021F0C6
:100B5000853219F0AADFF9CF089520E0E894559185
:100B60005532C1F3503311F4689455915A3348F417
:100B7000505390F3220F022E220F220F200D250F2B
:100B8000F4CF0EF4219589919991533619F3533787
:100B900029F1533559F1BC0188279927E8945C362F
:100BA00021F48991999168945591543639F446EF1E
:100BB0007EF077FF0DC08FEF9FEF0AC055374AE0F8
:100BC00039F0583540E121F0523642E009F00895FD
:100BD000FF93EF937DDFEF91FF91B7CFFF93EF93FB
:100BE000FC0181918030B9F360DFFBCFFF93EF937D
:100BF00068DFF1CFDF93CF93CDB7DEB72596A3DFC4
:100C0000CF91DF9108956E9A769A0C942B0CCF9326
:100C1000009731F00197D1F4FB01C28182E003C05B
:100C2000FB01C28181E0CC2349F00E94E41F43E034
:100C300062E081E00E94BB06C0E009C00E9405207E
:100C400043E062E081E00E94BB0601C0C1E08C2F5E
:100C5000CF91089581E008950C9407061F93CF93D8
:100C6000DF9300D000D01F92CDB7DEB749835A83FF
:100C70006B832091980189819A81211112C066238A
:100C800049F00E94D920182F682F89819A810E94EB
:100C9000822003C00E94AD20182F69817A81812FA4
:100CA00004C00E94D92069817A810F900F900F9023
:100CB0000F900F90DF91CF911F910C947F09FC0151
:100CC000408151816281738184810C942E068F92C0
:100CD0009F92AF92BF92CF92DF92EF92FF920F93CB
:100CE0001F936B017C0181E090E0A0E0B0E04C013B
:100CF0005D0104C0880C991CAA1CBB1C4A95D2F744
:100D0000AC01BD0104C0440F551F661F771F2A9513
:100D1000D2F7482959296A297B2904C0880F991FCD
:100D2000AA1FBB1F0A95D2F78A019B010C211D2126
:100D30002E213F21401751076207730739F4BC0188
:100D4000CD016C297D298E299F290AC08095909517
:100D5000A095B095BC01CD016C217D218E219F21F4
:100D60001F910F91FF90EF90DF90CF90BF90AF90C9
:100D70009F908F9008950F93382F262F6091EF0149
:100D80007091F0018091F1019091F201042F432FB5
:100D90000E9467060F910C94BE1F0C942D0CE82F37
:100DA000E295EF70F0E032A1282F2F7081E090E003
:100DB00001C0880F2A95EAF78095832382A30895BE
:100DC000CF92DF92EF92FF92853030F4811105C00F
:100DD000909180009F7D04C084E09091800090629B
:100DE00090938000282F30E0AFEFBFEF0E94612D7D
:100DF000DC01CB0142E0B695A795979587954A957A
:100E0000D1F78C3744E1940728F469E070E00E9440
:100E1000112D27C08A50974DAF4FBF4F6627782FAF
:100E2000892F9A2F25EF38E241E050E00E94392DBA
:100E300069017A01CA01B9010E94F52C9B01AC013C
:100E4000C701B6010E94F52CBB27A92F982F872F29
:100E5000009721E0A207B10511F0BC0102C06FEFBD
:100E60007FEF70938B0060938A00FF90EF90DF908C
:100E7000CF900895269A86E30E94CF0682E280935F
:100E8000800089E1809381008FEF9FEF909387002E
:100E9000809386000C9420240E943522811102C088
:100EA0000E94B8220E943A070C94030608950C94FD
:100EB00056070C94570708950E94771B0E945B0702
:100EC0002FEF84E39CE0215080409040E1F700C088
:100ED00000000C94E3230F931F93CF93DF938C01B7
:100EE0000E945F06EC01B8010E942C06882321F1C4
:100EF000B801CE010E9464158823F1F0CA3CFCE5DC
:100F0000DF07E1F008F01FC1C33C9CE5D907E9F019
:100F100038F5C531FCE5DF0708F0AFC0C2308CE51D
:100F2000D807A8F5C1159CE5D90709F082C0F801DA
:100F3000828181110E945C07C0E0D7C1F8018281E3
:100F40008823D1F30E942211F7CFF80182818823F0
:100F500099F30E945A218272B9F00E945713ECCF84
:100F6000C63C9CE5D90709F4BFC008F0D1C0C43C19
:100F7000FCE5DF0709F0C0C0F80182818823E1F2B7
:100F80000E945A21827249F30E944A13D5CFF80178
:100F90008281882309F450C00E943522811102C049
:100FA0000E94B8220E94482290E0909348028093C9
:100FB0004702FE01E350FC45E231F10530F4EA5A04
:100FC000FF4F809147020C945B2D80914702816016
:100FD00027C0826025C0846023C0806121C08062F8
:100FE0001FC080641DC080681BC08460886018C0FA
:100FF0008E7F16C08D7F14C08B7F12C08F7E10C075
:101000008F7D0EC08F7B0CC08F770AC08B7F877F50
:1010100007C087FB222720F991E0922790FB87F9F0
:1010200080934702809147020E944C220E94771BC6
:1010300083CFC130DC4539F0C801DF91CF911F91DA
:101040000F910C942A06F8018281882309F474CF49
:1010500080910402C82FC095C170C0FB80F98093B5
:101060000402CC2329F08CED92E00E94610564CF4C
:101070008AEC92E00E94610538C1C631FCE5DF07C9
:1010800039F50E945A21982FF80182812091100190
:1010900030911101882379F09A7A81E009F480E097
:1010A00080936401911102C069E201C065E3C90146
:1010B0000E94ED220AC080916401811102C069E2A0
:1010C00001C065E3C9010E94EF220E94A82134CF2C
:1010D000C23CDC4509F0B0CFF8018281882309F4D5
:1010E0002BCF0E940A1428CFF8018281882309F4AB
:1010F00023CF0E94E61020CFC53CDC4509F09CCFF1
:10110000F8018281882309F417CF0E94D91014CFE7
:10111000F8018281C83CFCE5DF0731F4882309F43B
:101120000BCF0E94041108CFC93CDC4530F4882362
:1011300009F402CF0E94F510FFCE882309F4FCCEFB
:101140000E941311F9CEC13DECE5DE0781F4F801F0
:101150008281882309F4F0CE0E940B0F8F3028F093
:101160000E940B0F843108F40FCF8FE00FC0C23DF7
:10117000FCE5DF0708F05CC0CD3C8CE5D80749F4FE
:10118000F8018281882309F4D7CE81E00E945A13A6
:10119000D3CECE3C9CE5D907C0F4CB3CECE5DE07D2
:1011A00041F4F8018281882309F4C6CE0E94130F0E
:1011B000C3CECC3CDC4509F03FCFF80182818823C7
:1011C00009F4BACE0E94240FB7CEF8018281CF3C39
:1011D000FCE5DF0771F4882309F4AECE0E940B0F03
:1011E000863028F00E940B0F883008F4CDCE86E0C0
:1011F000CDCFC03DDC4570F4882309F49DCE0E941C
:101200000B0F823028F00E940B0F853008F4BCCE03
:1012100082E0BCCF882309F48FCE0E940B0F893067
:1012200028F00E940B0F8E3008F4AECE89E0AECFCE
:10123000C53DECE5DE0739F4F8018281882309F425
:101240007BCE83E2A3CFC63DFCE5DF0750F5F80176
:101250008281C33DFCE5DF0729F4882309F46CCEC5
:1012600088E194CFC43DDC4570F4882309F464CE52
:101270000E940B0F853128F00E940B0F873108F474
:1012800083CE85E183CF882309F456CE0E940B0FCD
:10129000893128F00E940B0F823208F475CE89E163
:1012A00075CFCD3DECE5DE0749F4F8018281882356
:1012B00009F442CE82E00E942B283ECECE3DFCE5D2
:1012C000DF0741F4F8018281882309F435CE0E94BA
:1012D000B82232CECC3DDC4509F0AECEF801828199
:1012E000882309F429CE80E0E6CF8C2FDF91CF91BF
:1012F0001F910F91089580E090E00895089520E3F4
:10130000829FC0011124FC012CE0729FE00DF11DB1
:101310001124E60FF11DEE0FFF1FE65BFE4F8591D6
:1013200094910895880F991FFC01E351FD4F859119
:1013300094910895CF93DF930E947F090E948B0BB5
:10134000EC01811521E5920708F042C0811540E5C6
:10135000940708F02FC1883E910500F5803E910565
:1013600008F0D5C1883A910570F4853A910508F0E6
:10137000A4C08130910509F4CAC108F47BC1049767
:1013800008F0C5C177C18F3B910508F4A1C0803C2E
:10139000910508F46FC1805C9109FBC0C11580E321
:1013A000D80780F4C11520E2D20708F0F0C0C03F92
:1013B000D10508F45FC1CF3FD10511F008F0A7C1F6
:1013C000D065A5C1C11540E4D40708F0F0C0E5C060
:1013D000C11589E5D80760F5C11528E5D20708F0E1
:1013E00035C1C11544E5D40778F4C11583E5D807A4
:1013F00008F011C1C11522E5D20708F0F6C0DC2FB4
:10140000CC27C16FD06A83C1C11545E5D40708F464
:1014100018C1C11586E5D80708F02CC18C2F0E9491
:10142000070C8F71C82FD0E0DC2FCC27D0626FC1A2
:10143000CD3B2CE5D20709F414C1F0F4CB3B8CE58D
:10144000D80709F408C108F009C1C1154AE5D40755
:1014500008F010C18C2F8F700E94070C94E0D69575
:10146000C7959A95E1F7CF70D0E0DC2FCC27D06AF2
:101470008F70806EC82B4BC1C03C8CE5D80709F437
:10148000F6C060F4CE3B4CE5D40709F4EDC0CF3B89
:10149000DC4509F0EFC0C0E0D2ED39C1CE01905675
:1014A0008115904208F0E6C08D2F8F710E94070CC5
:1014B000DD27D0628F71D82B2AC1853A910509F4B6
:1014C000DCC0863A910509F0DBC0C2E8D0E41FC158
:1014D000883A910509F4D7C0893A910509F4D6C034
:1014E0008A3A910509F4D5C08B3A910509F4D4C024
:1014F0008C3A910509F4D3C08B3B910509F4D2C015
:101500008C3B910509F4D1C08D3A910509F4D0C006
:10151000803B910509F4CFC08E3A910509F4CEC005
:101520008F3A910509F4CDC0813B910509F4CCC0F7
:10153000823B910509F4CBC0833B910509F4CAC0F5
:10154000843B910509F4C9C0853B910509F4C8C0E5
:10155000863B910509F4C7C0873B910509F4C6C0D5
:10156000883B910509F4C5C0893B910509F4C4C0C5
:101570008D3B910509F4C3C08E3B910509F4C2C0AF
:101580008A3B910509F4C1C0C0E0D4E4C0C0CE01DB
:101590009F700E949209EC01BAC0CE019927D3FF37
:1015A00003C0EC01D86CB3C0EC01D06CB0C0DF70EC
:1015B000D06AADC074E0969587957A95E1F783700F
:1015C0009C2F937021E030E002C0220F331F9A95C8
:1015D000E2F73C68382BCF70C695C69540E2C49FB1
:1015E000E0011124C22BD32B92C0CE018370992726
:1015F00021E030E002C0220F331F8A95E2F78C2FE2
:101600008695869540E2849FC0011124E901C82B8C
:10161000D92BDC687CC0CE018370992721E030E0B3
:1016200002C0220F331F8A95E2F78C2F869586958C
:1016300040E2849FC0011124E901C82BD92BDA684C
:1016400066C0DC2FCC27C46FD06A61C0DC2FCC27EA
:10165000C06FD06A5CC0C0E0D4ED59C0C0E0D5ED29
:1016600056C0C0E0D1ED53C0C0E0D0ED50C0C0E0E6
:10167000D3ED4DC0C0E0D0E04AC0C1E8D0E447C0DF
:10168000C3E8D0E444C0C2EED4E441C0C9EED4E41F
:101690003EC0CAEED4E43BC0C5EBD4E438C0C6EBD0
:1016A000D4E435C0C3EBD4E432C0C4EBD4E42FC0DF
:1016B000C7EBD4E42CC0CCECD4E429C0CDECD4E40A
:1016C00026C0C3E8D5E423C0CAE8D5E420C0C2E9F7
:1016D000D5E41DC0C4E9D5E41AC0C1E2D6E417C000
:1016E000C3E2D6E414C0C4E2D6E411C0C5E2D6E435
:1016F0000EC0C6E2D6E40BC0C7E2D6E408C0CFE60F
:10170000D4E405C0C0E7D4E402C0CAE2D6E4CE0106
:10171000DF91CF9108958238910549F1B0F481337A
:10172000910509F459C048F48932910509F44FC074
:101730008A32910509F455C008958533910509F45D
:1017400041C08933910599F00895833E910531F1A7
:1017500038F4803E910591F0823E9105A9F00895FC
:10176000863E910501F1873E910539F1089520915A
:10177000470220FD3BC021FD39C0089580914702FA
:1017800080FF34C089E341C08091470282FF30C0AE
:101790008091470284FD2EC083EE37C080914702BE
:1017A00082FD26C0F5CF8091470283FF25C080913E
:1017B000470284FD1FC087EE28C08091470283FD49
:1017C0001BC0F5CF8091470285FD18C019C08091DC
:1017D000470285FD15C012C08091470286FD12C0E8
:1017E00013C08091470286FD0FC00CC080EE0DC073
:1017F00082EE0BC080E009C086EE07C089E205C01A
:1018000085E303C08AE201C081E390E008959091EE
:10181000470292FF0DC0282F2871283019F4877FC6
:10182000846006C0282F2471243011F48B7F8860D7
:1018300093FF0DC0282F2871283119F4877E846109
:1018400006C0282F2471243111F48B7E886194FD09
:10185000877E089508950C942A0C0C942A0CE82F86
:10186000F0E0EE0FFF1FEB59FE4F8081918108954C
:10187000CF92DF92EF92FF920F931F93CF93DF935C
:101880008DEF92E00E94610585E6E82E81E0F82E5A
:10189000C0E0D0E098EFC92E92E0D92E0FEE12E012
:1018A000DF93CF93DF92CF920E94FA0585EF92E00B
:1018B0000E946105F701819191917F010E9422228E
:1018C0009F938F931F930F930E94FA058DEE92E0E2
:1018D0000E94610521968DB79EB708960FB6F894C1
:1018E0009EBF0FBE8DBFC430D105D1F6DF91CF9121
:1018F0001F910F91FF90EF90DF90CF900895A9E294
:10190000B1E04DE251E061E070E08D91E82FE295A9
:10191000EF70F0E091A18F709B0101C0220F8A95BA
:10192000EAF7822F8095892381A34A175B0769F71D
:10193000ADE1B1E041E050E08D91E82FE295EF702C
:10194000F0E021A18F70BA0102C0660F771F8A955F
:10195000E2F7CB01962F9095922391A392A1892B28
:1019600082A371E0A932B70739F710926E01109285
:101970006D01109266011092650110927001109233
:101980006F0110926801109267011092720110921B
:10199000710110926A011092690110927401109203
:1019A000730110926C0110926B0184E00E94790D1A
:1019B0000C944C073F924F925F926F927F928F925E
:1019C0009F92AF92BF92CF92DF92EF92FF920F93CE
:1019D0001F93CF93DF9369E271E0ADE6B1E025E7B5
:1019E000622E21E0722E412C01E010E05D018D900D
:1019F0009C90119711961C921E92EB018991BE0149
:101A0000E82FE295EF70F0E021A18F70A80102C0ED
:101A1000440F551F8A95E2F7CA01242B21A322A166
:101A2000342E3094232122A350EA5A95F1F79DE1F8
:101A3000E92E91E0F92E40E050E0E70159907E0157
:101A4000252D22952F7030E0E90128A1CD90DC9062
:101A5000119730E0D52DDF7002C035952795DA95C6
:101A6000E2F720FD08C09801042E02C0220F331FA8
:101A70000A94E2F702C020E030E0C22AD32A11968D
:101A8000DC92CE924F5F5F4F4C305105B1F691A181
:101A9000D32DD923D1A392A1892B82A3129681E0C1
:101AA000F501208131812815390509F480E0482AA3
:101AB0006A167B0609F09ACF242D44E065E671E0B2
:101AC0008DE691E00E947A0D0E94CD06842DDF9173
:101AD000CF911F910F91FF90EF90DF90CF90BF902B
:101AE000AF909F908F907F906F905F904F903F90BE
:101AF00008950895FF920F931F93CF93DF93F82ECD
:101B0000092F162FD72FC42F222349F081E080936D
:101B100077010E94872390937601809375018091CD
:101B200077018823D9F080917501909176010E9408
:101B30009323069798F0EF2DF02FA12FBD2F80E073
:101B400090E04C2F50E08417950734F421913191A7
:101B50002D933D930196F7CF10927701DF91CF91AE
:101B60001F910F91FF900895EF92FF920F931F9393
:101B7000CF93DF93362F472F282FE82FF0E07111F6
:101B800006C0E95FF84F6491762F862F7BC0072F40
:101B900010E056E0659FC0011124CFEFD0E0BE01F8
:101BA0000E94112D5BEA5603C001579F900D11242E
:101BB000830F911D830F911D982F990F890F7E011F
:101BC000E01AF10AEE9ED001EF9EB00DFE9EB00D20
:101BD0001124489FA0011124452F55277E01E41AA6
:101BE000F50AEE9EA001EF9E500DFE9E500D1124B1
:101BF0007E01E81AF108E09EC001E19E900DF09E82
:101C0000900D1124892F9927C81BD90BCE9FC00195
:101C1000CF9F900DDE9F900D11246230710599F0D9
:101C200050F461157105E9F061307105B9F48B2F3D
:101C3000722F252F18C06430710561F038F06630BE
:101C4000710579F00BC0892F722F02C0822F752F7A
:101C50002B2F09C0822F7B2F292F05C0852F7B2F8B
:101C600002C08B2F792FE22FF0E0E95FF84F6491EB
:101C7000E72FF0E0E95FF84F7491E82FF0E0E95FBB
:101C8000F84F8491DF91CF911F910F91FF90EF90CA
:101C900008950895CF93DF93762FE901682F842F5D
:101CA0000E94B40D698378838A83DF91CF91089570
:101CB00080911402282F269530E02115310519F462
:101CC0008170826005C02532310524F081708864FE
:101CD00080931402089588E090E00C94902DCF92A8
:101CE000DF92EF92FF926B017C010E94580EB701C8
:101CF000A60188E090E0FF90EF90DF90CF900C94E9
:101D0000AE2DE4E1F2E083E0808311828FEF8283E5
:101D10008383148260817181828193810C946F0E20
:101D20008091040280FF08C089ED95E09F938F9316
:101D30000E94FA050F900F908091040280FF0FC05F
:101D40008091140281701F928F938CEB95E09F938A
:101D50008F930E94FA050F900F900F900F90809133
:101D6000040280FF0FC08091140286951F928F930A
:101D700081EA95E09F938F930E94FA050F900F9050
:101D80000F900F908091040280FF0EC08091150289
:101D90001F928F9387E895E09F938F930E94FA0597
:101DA0000F900F900F900F908091040280FF0EC053
:101DB000809116021F928F938DE695E09F938F93EB
:101DC0000E94FA050F900F900F900F9080910402DF
:101DD00080FF0EC0809117021F928F9383E595E0DC
:101DE0009F938F930E94FA050F900F900F900F9082
:101DF0008091040280FF0EC0809118021F928F9381
:101E000087E395E09F938F930E94FA050F900F90C0
:101E10000F900F9008958091140280FF02C0869564
:101E2000089580E0089580911802833018F48F5F40
:101E3000809318026091140270911502809116022D
:101E4000909117020C946F0E80911802882319F05C
:101E50008150809318026091140270911502809154
:101E60001602909117020C946F0E6091040170E0BD
:101E70008091140280FF0AC080917C0123E0829F40
:101E8000C0011124875E9D4F0C94ED1480917B015D
:101E900090910301891780F7E82FF0E09F01220F4E
:101EA000331FE20FF31FE75EFD4F11821082128293
:101EB0008F5FF0CF9091140290FF16C090917B013C
:101EC00020910301921770F4E92FF0E0DF01AA0FCF
:101ED000BB1FEA0FFB1FE75EFD4F818360834283D8
:101EE0009F5FF0CF0C94350F0895CF93DF9300D010
:101EF0001F92CDB7DEB79091140290FF0AC09E01E9
:101F00002F5F3F4F0E944A0E4B8169818A810E9458
:101F10005A0F0F900F900F90DF91CF910895CF93AC
:101F2000DF93EC01EC81F0E0EE5FF94F4491E4E1E6
:101F3000F2E0628181810E94750F8C818F5F8C83BA
:101F4000DF91CF910895CF93DF93EC01E4E1F2E0CC
:101F5000438162818C810E94750F8C818F5F8C839D
:101F6000DF91CF9108950F931F93CF93DF9300D00C
:101F70001F92CDB7DEB78C018091780181110AC024
:101F80009E012F5F3F4F4FEF6FEF0E944A0E8A81F5
:101F900080937801F8018481813051F028F08230FB
:101FA00061F4409178010AC08091780140E007C057
:101FB0006091780140E080E003C040E080E060E0B4
:101FC0000E945A0FF801848190E0019663E070E06E
:101FD0000E94252D84830F900F900F90DF91CF9159
:101FE0001F910F9108954F925F926F927F928F92FF
:101FF0009F92AF92BF92CF92DF92EF92FF920F9398
:102000001F93CF93DF9300D01F92CDB7DEB7F82E8A
:10201000B62EE42E622E9091140290FFACC0E92FF0
:10202000E695AE2FB0E0A35DBE4F8C918093840106
:102030009E7F923061F49E012F5F3F4F8F2D0E9453
:102040004A0E4B8169818A810E945A0F62C0823098
:1020500019F4E09017025DC0863019F4F090150273
:1020600058C08930D9F3893109F053C0E9518E2F16
:102070008170782E81E0A72CA826E695F0E0EE5F2F
:10208000F84FC590D490412CDD2492E9892E93E03D
:10209000992E609102014616D0F5042D10E00C9D9A
:1020A000C0010D9D900D1C9D900D112470E00E94AB
:1020B000112D5F2C711002C0560E01C0561A80916E
:1020C000040280FF11C0DF92CF921F92AF921F9245
:1020D0005F921F924F929F928F920E94FA050FB6C5
:1020E000F894DEBF0FBECDBF80917B01080F111D9C
:1020F0009801220F331F020F131F9801275E3D4FD7
:102100004E2D6B2D852D0E944A0E4394C2CF0E9406
:10211000350FF0921502B0921602E0921702662077
:10212000C9F060911402709115028091160290918D
:1021300017020E946F0E809117021F928F93809159
:1021400016021F928F93809115021F928F938DE636
:1021500093E008C01F92EF921F92BF921F92FF92CE
:1021600086E493E09F938F930E94FA050FB6F8944C
:10217000DEBF0FBECDBF0F900F900F90DF91CF91BC
:102180001F910F91FF90EF90DF90CF90BF90AF9095
:102190009F908F907F906F905F904F900895E4E1B3
:1021A000F2E09181282F4381628188E0890F0C94AD
:1021B000F30F81E00C94CF10E4E1F2E09181282F3D
:1021C0004381628188EF890F0C94F30F81E00C94B6
:1021D000DC10E4E1F2E0628128E0620F08F46FEFC6
:1021E000282F438181810C94F30F81E00C94E91036
:1021F000E4E1F2E0628128E0621B08F460E0282F4D
:10220000438181810C94F30F81E00C94F810E4E198
:10221000F2E0438128E0420F08F44FEF282F62815B
:1022200081810C94F30F81E00C940711E4E1F2E05A
:10223000438128E0421B08F440E0282F628181811D
:102240000C94F30F81E00C94161120E00C94F30F22
:10225000FF920F931F93CF93DF93EC01F12C0FEFBD
:1022600010E060910201F616F0F480917B012F2DB1
:1022700030E0280F311DC901880F991F280F391F21
:10228000275E3D4F70E0C8010E94252D962F8C815E
:102290004091170260911602F99E800D11240E9450
:1022A0004A0EF394DECF0E94350F9A818C8190FF05
:1022B00002C08F5F01C081508C83DF91CF911F914D
:1022C0000F91FF900895BF92CF92DF92EF92FF920D
:1022D0000F931F93CF93DF93FC01828180FF02C095
:1022E0000FEF01C001E010E0809102011817E0F546
:1022F00080917B01C12ED12CE601C80FD11DCE01EA
:10230000880F991FC80FD91FC75EDD4F1982188229
:102310001A8234E0E32EF12CB12C80917A018B0DDE
:1023200087FF03C090910201890F082E000C990BC2
:10233000C816D90691F4809117028E9DA0018F9D39
:10234000500D112455954795559547959E016091DF
:102350001602809115020E944A0EB00EF1E0EF1AAB
:10236000F108D9F61F5FC0CF0E94350F80917A0126
:10237000013031F4811102C080910201815007C007
:1023800090E001966091020170E00E94252D8093FB
:102390007A01DF91CF911F910F91FF90EF90DF9025
:1023A000CF90BF900895CF9380917B0190910301CE
:1023B000891770F4E82FF0E09F01220F331FE20F1E
:1023C000F31FE75EFD4F1182108212828F5FF0CF04
:1023D000C0E060910201C617C0F5EC2FF0E070E09C
:1023E000CF010E94252D20917B01820F2091790140
:1023F000022E000C330B90E0E217F307CCF0209193
:102400000101022E000C330B2E173F078CF09C01AC
:10241000220F331F820F931F9C01275E3D4F409177
:10242000170260911602809115020E944A0E0BC09D
:10243000FC01EE0FFF1F8E0F9F1FFC01E75EFD4F9B
:10244000118210821282CF5FC4CF0E94350F20917B
:10245000000180917901820F8093790190910101AF
:10246000920F9093010119165CF4082E000C990B41
:102470004091020150E041505109841795071CF02A
:10248000219520930001CF9108950F931F93CF932F
:10249000DF938C01FC0184819581019681709927DD
:1024A00095838483C0E0D5E580910201C81700F5CB
:1024B00080917B012C2F30E0280F311DC901880F3E
:1024C000991F280F391F275E3D4F4C2F4695F80165
:1024D00084819581840F911D8170409117026091D4
:1024E00016028D9F802D11240E944A0ECF5FDCCFF3
:1024F000DF91CF911F910F910C94350F0F931F9384
:10250000CF93DF93EC0100E010E080910201282FCF
:1025100030E00217130724F590917B019801290FF1
:10252000311DA901440F551F240F351F275E3D4F54
:10253000869590E04C81081719071CF4442331F06C
:1025400002C0411103C04091170201C040E06091F8
:102550001602809115020E944A0E0F5F1F4FD5CFC1
:102560000E94350F8C8190E00196817099278C83B1
:10257000DF91CF911F910F9108956091140266959C
:1025800070E04BE050E085E091E00E947B2D892BCC
:1025900019F481E0809385010E94872390937E0146
:1025A00080937D018091040280FF08C08DE293E05A
:1025B0009F938F930E94FA050F900F9008951092A9
:1025C00085018091040280FF08C084E193E09F931D
:1025D0008F930E94FA050F900F9008959091140226
:1025E00090FF4CC09170811102C0926006C085328C
:1025F00010F0986402C0880F982B90931402662301
:1026000091F06091140270911502809116029091E0
:1026100017020E946F0E8091140286951F928F936D
:102620008DE794E007C08091140286951F928F93E6
:102630008FE594E09F938F930E94FA050F900F907F
:102640000F900F9060911402669570E04BE050E09F
:1026500085E091E00E947B2D892B19F00E94DF120A
:1026600002C00E94BD1281E0809380014091170258
:1026700060911602809115020C9425110895682F1F
:1026800090911402969581E0890F853208F081E0DF
:102690000C94EE1281E00C943F13682F9091140279
:1026A00096958FEF890F09F484E20C94EE1281E085
:1026B0000C944D1361E00C94EE12CF93DF93C4E1C0
:1026C000D2E08881816088831F9281E08F9381EFBF
:1026D00093E09F938F930E94FA050F900F900F90B5
:1026E0000F9088818695DF91CF910C945A1360E00A
:1026F0000C94EE1280918301811161C080910402DB
:1027000081608093040280E295E09F938F930E9402
:10271000FA05809104020F900F9080FF08C08AE0B4
:1027200095E09F938F930E94FA050F900F900E945F
:102730003522811110C08091040280FF08C082EE12
:1027400094E09F938F930E94FA050F900F900E9440
:10275000B8220E94810E0E946B0E60931402709347
:10276000150280931602909317026E7FC1F4809138
:10277000040280FF08C089E994E09F938F930E9430
:10278000FA050F900F900E94810E0E946B0E6093CD
:1027900014027093150280931602909317020E9400
:1027A000580E0E94900E109285018091140280FFB5
:1027B00003C086950E94771381E08093830108957A
:1027C000CF93DF93C4E1D2E088818E7F88836881D4
:1027D00079818A819B810E946F0E888181701F920E
:1027E0008F9389EB93E09F938F930E94FA050E9449
:1027F000DF122FEF80E792E0215080409040E1F718
:1028000000C000000F900F900F900F90DF91CF91BC
:102810000C94350F80911402809581701F928F93D4
:1028200088E294E09F938F930E94FA0580911402AE
:102830000F900F900F900F9080FD0C94E0130C946C
:102840005D130F931F93CF93DF93809185018823AE
:1028500009F48CC080918401E0911402E695E81B94
:10286000E0937F01823049F4F0E0E250FA4FE491C6
:10287000CE2FD0E00FE81FE049C0863049F4F0E0E9
:10288000E550FA4FE491CE2FD0E003EA1FE03EC0BE
:10289000893051F4E695F0E0E850FA4FE491CE2FFC
:1028A000D0E008E211E132C08F3051F4E695F0E05B
:1028B000EB50FA4FE491CE2FD0E003E611E126C0B1
:1028C000853149F4F0E0EE50FA4FE491CE2FD0E09C
:1028D00003ED11E11BC0883181F0833239F4E0EF60
:1028E000F5E0C591D49103EB1FE010C0843251F4A0
:1028F000C4EFD1E00EE712E109C0C8EED3E005E471
:1029000012E104C0C0EDD7E009E41EE0809180012F
:10291000882389F0109280010E9487239E012095D0
:102920003095820F931F90937E0180937D011092CA
:1029300082011092810180917D0190917E010E941F
:1029400093238C179D0790F0E0917D01F0917E011B
:10295000CE0FDF1FD0937E01C0937D018DE791E004
:10296000F801DF91CF911F910F910994DF91CF91E1
:102970001F910F9108952EB1342F309523233EB12E
:10298000432B3FB7F894FC01680F791FE617F70750
:1029900089F0819198E04EB9000000C087FF2EB900
:1029A000880F000000C000C000C02EB900C09A957A
:1029B00091F7ECCF3FBF08952DB1242B2DB99B018A
:1029C000220F331F620F731F0E94BB1487EC90E02D
:1029D0000197F1F700C00000089544E00C94DC1466
:1029E0000F931F93CF93DF93C62FD42F122FFC0189
:1029F00082818823C9F0609388010E948723909385
:102A000087018093860180E28C0F883008F057C0E0
:102A1000C77081E001C0880FCA95EAF7DF91CF91B6
:102A20001F910F910C94EF1880918801681330C0AA
:102A300080918601909187010E949323883C9105A3
:102A400038F500E20D0FCD17B9F080E28C0F883019
:102A500040F4C77081E001C0880FCA95EAF70E9470
:102A6000F618083028F581E09D2F977001C0880F77
:102A70009A95EAF70E94EF18812F0E94DC1808301F
:102A8000F0F4D77081E001C0880FDA95EAF70AC048
:102A900080E28C0F883098F4C77081E001C0880F05
:102AA000CA95EAF7DF91CF911F910F910C94F61818
:102AB000812FDF91CF911F910F910C94DC18DF9142
:102AC000CF911F910F9108959C01CB01203F4CE5C0
:102AD0003407F9F078F4283DFCE53F07B9F0293DCB
:102AE0004CE5340711F1273D3C4531F526E241EE36
:102AF00061EE1EC0223FFCE53F0799F070F0233FD6
:102B00003C45D1F427E245EE66EE12C027E245EEE1
:102B10000EC026E241EE60EE0BC027E245EE64EE09
:102B200007C026E241EE62EE03C028E241E065EE16
:102B30000E94F01480E00895FC018281882319F03E
:102B400010928801089581E0089590938E018093FA
:102B50008D010895E0918D01F0918E01309721F063
:102B60000190F081E02D099480E00895EF92FF92AA
:102B70000F931F93CF93DF93E0918D01F0918E011E
:102B80003097B1F18C010280F381E02D099580919D
:102B9000040282FF2DC080FF04C08FE098E00E94F5
:102BA0006105E80118E089E0E82E88E0F82E8091C0
:102BB000040280FF0BC088811F928F93FF92EF92D7
:102BC0000E94FA050F900F900F900F9011502196D0
:102BD0001111EDCF8091040280FF0AC087E098E0D8
:102BE000DF91CF911F910F91FF90EF900C946105B1
:102BF000DF91CF911F910F91FF90EF900895209159
:102C00008B0130918C012817390771F090938C015A
:102C100080938B01E0918D01F0918E01309721F02E
:102C20000680F781E02D0994089520918901309163
:102C30008A012817390771F090938A0180938901DE
:102C4000E0918D01F0918E01309721F00084F185A3
:102C5000E02D0994089585B7806885BF85B78068A1
:102C600085BF089508950C9432160C9433160C9475
:102C700032160C9432160E942B160E9437160C94B2
:102C8000351681E008950E947E230E947F0C0E94E9
:102C900007240E9420240E947A130C943916CF93A3
:102CA000C82F8091040282FF1EC080FF04C088E20A
:102CB00098E00E9461058091040280FF0CC01F9281
:102CC000CF9383E298E09F938F930E94FA050F9031
:102CD0000F900F900F908091040280FF04C081E25A
:102CE00098E00E9461058C2FCF910C9459075F9258
:102CF0006F927F928F929F92AF92BF92CF92DF920C
:102D0000EF92FF920F931F93CF93DF93CDB7DEB770
:102D10002A970FB6F894DEBF0FBECDBF0E94DA0C23
:102D20000E944116811111C08FEF89838A831B8213
:102D30000E9487238160782F9D838C8349815A81EB
:102D40006B818D810E94321756C090E9692E91E007
:102D5000792E00E010E088248394912C502E802F4F
:102D60000E942F0C6C01F301A190B1903F01A826A5
:102D7000B926A114B10431F40F5F1F4F04301105BF
:102D800069F7D2CF8091040281FD0E94380C80E067
:102D900090E07401082E02C0EE0CFF1C0A94E2F7CA
:102DA00095012E213F21232B09F18E835F82CE20B6
:102DB000DF2081E0CD2809F480E088870E94872306
:102DC0008160782F9A8789874E815F8168858A859F
:102DD0000E943217000F111FF801E057FE4F80814B
:102DE0009181E826F926F182E08205C001968C30B7
:102DF000910579F6C1CF0E94AA1590918F0189178C
:102E0000D9F00E94AA1580938F012A960FB6F894E4
:102E1000DEBF0FBECDBFDF91CF911F910F91FF900D
:102E2000EF90DF90CF90BF90AF909F908F907F906A
:102E30006F905F900C944F162A960FB6F894DEBFF1
:102E40000FBECDBFDF91CF911F910F91FF90EF90FB
:102E5000DF90CF90BF90AF909F908F907F906F90BA
:102E60005F900895CF93DF93CDB7DEB72B970FB662
:102E7000F894DEBF0FBECDBF4F83588769877A872E
:102E80008B87DE01119686E0FD0111928A95E9F7A4
:102E900085E0FE01379601900D928A95E1F7498110
:102EA0005A816B817C818D819E810E94471E2B9669
:102EB0000FB6F894DEBF0FBECDBFDF91CF9108955E
:102EC000FC01808191810E941B210895882309F4CF
:102ED00013C1682F8238C1F40E94AA1581FD0CC16C
:102EE00069E380911001909111010E94ED220E94EE
:102EF000A8212FEF81EE94E0215080409040E1F72F
:102F000000C0000069E319C08338F9F40E94AA15D3
:102F100080FDF2C063E580911001909111010E9443
:102F2000ED220E94A8212FEF81EE94E021508040F5
:102F30009040E1F700C0000063E58091100190919E
:102F400011010E94EF220C94A8218438C1F40E9440
:102F5000AA1582FDD1C067E4809110019091110102
:102F60000E94ED220E94A8212FEF81EE94E02150D3
:102F700080409040E1F700C0000067E4DECF8CEFB6
:102F8000860F813A38F480911001909111010E94CE
:102F9000ED22D9CF80E2860F883048F4677081E057
:102FA00001C0880F6A95EAF70E945D21CCCF8BE5BE
:102FB000860F833070F4653A29F0663A31F083E881
:102FC00090E005C081E890E002C082E890E00C94B7
:102FD000FF1588E5860F873108F08EC0683A09F43E
:102FE00045C0693A09F445C06A3A09F445C06B3AEC
:102FF00009F445C06C3A09F445C06B3B09F445C07F
:103000006C3B09F445C06D3A09F445C0603B09F4D6
:1030100045C06E3A09F445C06F3A09F445C0613BBA
:1030200009F445C0623B09F445C0633B09F445C05F
:10303000643B09F445C0653B09F445C0663B09F4AF
:1030400045C0673B09F445C0683B09F445C0693B8E
:1030500009F445C06D3B09F445C06E3B09F445C019
:103060006A3B09F445C080E090E044C082EE90E005
:1030700041C089EE90E03EC08AEE90E03BC085EB17
:1030800090E038C086EB90E035C083EB90E032C032
:1030900084EB90E02FC087EB90E02CC08CEC90E0AC
:1030A00029C08DEC90E026C083E891E023C08AE837
:1030B00091E020C082E991E01DC084E991E01AC04E
:1030C00081E292E017C083E292E014C084E292E0D1
:1030D00011C085E292E00EC086E292E00BC087E26A
:1030E00092E008C08FE690E005C080E790E002C063
:1030F0008AE292E00C9415160895882309F45BC0C7
:10310000682F823879F40E94AA1581FF54C069E3C0
:1031100080911001909111010E94ED220E94A8213E
:1031200069E310C08338B1F40E94AA1580FF43C040
:1031300063E580911001909111010E94ED220E949F
:10314000A82163E580911001909111010E94EF2266
:103150000C94A821843879F40E94AA1582FF2BC010
:1031600067E480911001909111010E94ED220E946C
:10317000A82167E4E7CF8CEF860F813A18F380E24D
:10318000860F883048F4677081E001C0880F6A9527
:10319000EAF70E946321DCCF8BE5860F833020F4B1
:1031A00080E090E00C94FF15685A673120F480E0CD
:1031B00090E00C9415160895CF93C82F0E946617BF
:1031C000C93349F42FEF83EC99E0215080409040BF
:1031D000E1F700C000008C2FCF910C947D1888235C
:1031E00021F00E945D210C94A8210895882321F0EC
:1031F0000E9463210C94A82108958F929F92AF9210
:10320000BF92DF92EF92FF920F931F93CF93DF93C2
:103210007C01062FC72FFC01158112951F70D281EA
:10322000D1110E947A210E945321882379F0DD2355
:1032300069F080E2800F883048F082E00E94F2213D
:103240000E94532191E0D82ED92601C0D12CBC2E4A
:10325000B2948FE0B8228B2D90E0FC01E859FF4F2B
:103260000C945B2D8C2F807FCF70882311F0C2953A
:10327000C07FDD2399F0CC2309F478C180E2800F70
:10328000883010F0011104C08C2F0E945D2103C012
:103290008C2F0E946D210E94A82168C1802F0E945E
:1032A0007D18CC2309F4A8C180E2800F883010F08B
:1032B000011104C08C2F0E94632103C08C2F0E9437
:1032C00073210E94A82198C18C2F807FCF708032FB
:1032D00011F0C295C07F002319F00130C9F022C05F
:1032E000DD2371F0112341F0113031F40E948D2162
:1032F0008C2B0E94952180C10E948D218C2B1DC09A
:10330000112319F0113009F477C10E949E211AC0CF
:10331000DD2321F0163008F06FC10EC0153008F023
:103320006BC110C0DD2361F0112331F0F7018581FD
:1033300080FF1CC18F7085838C2F0E94EF185CC1A9
:10334000111125C18C2FD0C08C2F86958695837046
:1033500019F0813061F050C1DD2321F0802F9C2FC6
:10336000937002C080E090E00E94FF1552C1DD23FF
:1033700021F0802F9C2F937002C080E090E00E948B
:10338000151647C18C2F837009F047C0D1113DC17C
:10339000202F229526952770220F220F602F6F7005
:1033A000862F90E0A0E0B0E04C015D01022E04C049
:1033B000880C991CAA1CBB1C0A94D2F704FF10C0ED
:1033C0008FE090E0A0E0B0E004C0880F991FAA1F32
:1033D000BB1F2A95D2F780959095A095B09503C014
:1033E00080E090E0DC01C695C695C370BC01CD01BC
:1033F000682979298A299B29C23049F058F4C130BB
:1034000019F00E94981F01C10E94861FFEC00E94F1
:10341000AA1FFBC00E94841FF8C0DD2319F08C2F67
:10342000817001C08695882309F4EFC0202F229572
:1034300026952770220F220F602F6F70862F90E045
:10344000A0E0B0E04C015D01022E04C0880C991C84
:10345000AA1CBB1C0A94D2F704FF10C08FE090E0B6
:10346000A0E0B0E004C0880F991FAA1FBB1F2A95D7
:10347000D2F780959095A095B09503C080E090E03C
:10348000DC01C695C695C370BC01CD0168297929B8
:103490008A299B29C23049F058F4C13019F00E94A2
:1034A0005D20B3C00E944B20B0C00E946F20ADC011
:1034B0000E94BE1FAAC0802F90E0FC01E05EF109CF
:1034C000E531F10508F04EC0E858FF4F0C945B2D34
:1034D0000F708C2F8F71DD2321F00E94E41F802F4D
:1034E0002CCF0E940520802F0E94F61885C0DD2376
:1034F00041F0153008F080C08C2F8F710E942A2077
:103500007BC0163008F078C0F7CFDD2339F08C2F60
:103510008F710E94E41F70C0DD23C9F38C2F8F715F
:103520000E94052069C0DD2329F08C2F8F710E9435
:10353000CF1F62C00E94CA1F5FC0DD2349F0CF7158
:103540008C2F0E94E41F63E08C2F0E94DD2154C069
:1035500081E00E94F221123008F44EC082E00E9405
:10356000F2214AC0DD2331F0112389F2802F0E941D
:10357000661742C0112391F2093349F4FFEF23EC9F
:1035800089E0F15020408040E1F700C00000802F2A
:103590000E947D1831C04C2F4F70602FC7010E94D0
:1035A0007B090E94F51E35C0D11133C0CF70C230E7
:1035B00091F038F4CC2361F0C130F1F40E946D2415
:1035C00028C0C43071F050F0C530B1F480E00AC0BA
:1035D0000E943D241EC00E94D7241BC00E94F324D9
:1035E00018C084E00E94292514C04C2F4F70602F12
:1035F000C7010E947E090DC098E0B91631F0B916D6
:1036000040F086EF8B0D823020F40E94AA150E94B4
:103610005907DD20E1F00E944F2180FD18C0F7011D
:1036200012820E9449210E94E41FC7010E94331B9D
:103630000E944921DF91CF911F910F91FF90EF9050
:10364000DF90BF90AF909F908F900C940520DF91FA
:10365000CF911F910F91FF90EF90DF90BF90AF90AF
:103660009F908F9008950F931F93CF93DF93EC015A
:10367000988189812B813C81232B31F08F3F31F45C
:1036800081E09F3F19F403C081E001C080E080FD2C
:1036900013C0CE010E946B07882371F06881798185
:1036A0008A810E9426218C010E9481200E94721F23
:1036B000B801CE010E94FD18DF91CF911F910F91AB
:1036C00008950E947A210E948A210E94A82180E008
:1036D00090E00E94FF1580E090E00C941516809118
:1036E0001001909111010E94F1220C94611B0E9423
:1036F0006A210C946F1BE92FE295EF704E2F50E07A
:10370000FA013297EE30F105B0F4E357FF4F0C9415
:103710005B2D803F91F018F4803E68F40EC0843F2A
:1037200051F40BC0803E48F0813F29F406C093FB62
:10373000882780F9089580E0089581E008950E9427
:103740001B210E947B1B0895CF93DF9300D000D0F4
:103750001F92CDB7DEB70F900F900F900F900F9084
:10376000DF91CF910895CF93DF9300D000D000D0A8
:10377000CDB7DEB726960FB6F894DEBF0FBECDBF2D
:10378000DF91CF9108951F93CF93DF93C09199015B
:1037900016E080919A01C81799F0D0E01C9FF001C3
:1037A0001D9FF00D1124E556FE4F4081518162812D
:1037B0007381848195810E94B31B2196C770E9CFE4
:1037C000DF91CF911F9108954091CB015091CC0191
:1037D0006091CD017091CE018091CF019091D00187
:1037E0000C94B31BCF938091D00182958F7009F018
:1037F0005FC08091CD01882309F45AC0809199015E
:10380000B0919A017091CB01A091CC014091CE0171
:103810005091CF0191E07F3F09F090E0692FC6E021
:103820008B1709F445C04115510521F0AF3F21F038
:1038300020E003C021E001C0262F90E020FD35C02C
:10384000C89FF001C99FF00D1124E556FE4F21815C
:103850002A132BC02081271328C02281211125C0C3
:10386000238134812417350710F421503109241B9A
:10387000350B283C3105C8F42091D0012F70206110
:103880002093D00126E0289FF001299FF00D1124FC
:10389000E056FE4F80818F70806180838BEC91E0D9
:1038A0000E94331BCF910C94C31B01968770B8CF35
:1038B000CF910895AF92BF92CF92DF92EF92FF9295
:1038C0000F931F93CF93DF93CDB7DEB761970FB6FA
:1038D000F894DEBF0FBECDBF8C0185E0F801DE019C
:1038E0001D9601900D928A95E1F7D8014C911196A1
:1038F0005C9111971296EC903091CB016091CC01C4
:103900008091CE019091CF01009731F06F3F31F45B
:1039100021E03F3F19F403C021E001C020E0B22FB5
:10392000B170BB2E20FD60C1F801C380D480A0908F
:10393000CD01AA2009F4EEC02091D001C816D90605
:1039400028F0D601A81BB90BCD0104C08095909535
:103950008C0D9D1DFF24F394883C910580F0F12C83
:10396000207F09F09CC07C2DD98AC88A6E2D898958
:103970000E94A41B8BEC91E00E94331B2DC1822F6F
:10398000807F09F054C0561314C0431312C0FE2C9C
:10399000E1100FC02F7020612093D0010E94E41B22
:1039A0008BEC91E00E94331B8091D001F80185835C
:1039B0005CC1CD2831F05F3F31F481E04F3F19F415
:1039C00003C081E001C080E080FD03C081E08E255E
:1039D00002C080E090E0F82FF170FF2E80FF1CC045
:1039E0008091990120919A0136E0821709F41AC159
:1039F00090E0389FF001399FF00D1124E556FE4FFD
:103A00006181561306C06081461303C06281E612CD
:103A100003C001968770E9CFFE2CEE2009F425C182
:103A20008091D00181608093D001F12C1EC156138A
:103A300009C0431307C0E11005C08091D001F8010F
:103A40008583A4C04D875E878D859E850E949F1BC0
:103A5000882379F1EE2069F12091D001822F82959F
:103A60008F7090E0029774F08091CB019091CC011F
:103A700098878F831986DB86CA862C87CE010796A6
:103A80000E94331B86E0F801ABECB1E001900D928F
:103A90008A95E1F70E94F21B0E94E41B0DC05617A5
:103AA00071F04D875E878D859E850E949F1B8111D9
:103AB0001AC0C8010E94331BFF24F394D6C04313DD
:103AC000F0CFE110EECF8091D001F8018583C801DD
:103AD0000E94331B86E0EBECF1E0DF011D928A953A
:103AE000E9F7FA2CC2C0EE2021F32091D001822FF9
:103AF00082958F7090E002972CF28091CB0190918B
:103B0000CC019A8389831B82DD82CC822E83CE01F5
:103B10000196B6CFC816D90628F0F601E81BF90BB6
:103B2000CF0104C0809590958C0D9D1D883C91051A
:103B300048F0F12C7C2DD98AC88A6E2D89890E9483
:103B4000A41B4AC0FE2CEE2009F4B3CF561333C099
:103B5000431331C02091D00120FD24C0822F8295D3
:103B60008F70482F50E041155105E1F0D8011596AE
:103B70002C9315974F30510549F08F5F982F9295F0
:103B8000907F822F8F70892B15968C93C8010E948D
:103B9000331B86E0F801ABECB1E001900D928A9501
:103BA000E1F73DC086E0F801ABECB1E001900D9289
:103BB0008A95E1F75AC04D875E878D859E850E9464
:103BC0009F1B81115FCF8091D00181608093D001D4
:103BD000C8010E94331B49C0EBECF1E086E0DF0135
:103BE0001D928A95E9F71BC0EE2009F462CF4D873C
:103BF0005E878D859E850E949F1BF82E882309F481
:103C000058CF86E0F801ABECB1E001900D928A95B7
:103C1000E1F78BEC91E00E9460170E94F21B0E947A
:103C2000E41B23C04D875E878D859E850E941B21E6
:103C3000292F22952F70223028F49F7039F081119E
:103C400005C00BC0243028F49F7049F4805E883092
:103C500020F0C8010E94331BBF2CFB2C06C0D801EA
:103C600015969C91907F91F7F8CF8F2D61960FB6A6
:103C7000F894DEBF0FBECDBFDF91CF911F910F91A2
:103C8000FF90EF90DF90CF90BF90AF9008951F937B
:103C9000CF93DF93CDB7DEB72C970FB6F894DEBF86
:103CA0000FBECDBF4F83588769877A878B879C87E4
:103CB000CE0107960E945A1C8823D1F09F818885E7
:103CC0002A853B85232B31F08F3F31F481E09F3FE4
:103CD00019F403C081E001C080E080FD47C04F813E
:103CE000588569857A858B859C850E94B31B3EC06B
:103CF00086E0FE013796DE01119601900D928A95BD
:103D0000E1F7FF81E8856A857B856115710531F0F2
:103D1000EF3F31F481E0FF3F19F403C081E001C0BF
:103D200080E080FD23C020919A0130E0C901019616
:103D3000877099274091990150E084179507F1F118
:103D4000F983EA837D836C8396E0929FD001939FF1
:103D5000B00D1124A556BE4FFE01319601900D9273
:103D60009A95E1F780939A010E94C31B16E0809117
:103D7000990190919A01891771F1189FC00111243E
:103D800085569E4F0E945A1C882329F1E091990183
:103D90001E9FF0011124E556FE4F40815181628142
:103DA0007381848195810E94B31B8091990190E079
:103DB00001968770992780939901D9CF0E94771B2C
:103DC00010929A0110929901EBECF1E086E0DF018C
:103DD0001D928A95E9F72C960FB6F894DEBF0FBEB8
:103DE000CDBFDF91CF911F910895EF92FF920F9376
:103DF0001F93CF93DF938C01892B09F46CC0F12CB6
:103E0000EE24E394E8012196F8018491843740F48C
:103E1000843008F051C0813081F0823019F15BC0EC
:103E2000853709F444C0A8F19CE7980F903708F053
:103E300052C08F770E947D1841C00E5F1F4FFE0158
:103E4000849190E2980F983050F48770FE2D01C055
:103E5000FF0F8A95EAF78F2F0E947D2114C00E94E0
:103E600066172DC00E5F1F4FFE01849190E2980FE0
:103E7000983060F48770FE2D01C0FF0F8A95EAF735
:103E80008F2F0E9483210E94A82119C00E947D18B3
:103E900016C00E5F1F4FFE01C491CC2381F08FE945
:103EA0009FE00197F1F700C00000C150F6CF0E5F10
:103EB0001F4FFE01F49003C00E9466178E018F2DE4
:103EC000882309F49FCFEFE9FFE03197F1F700C0B5
:103ED00000008150F5CFDF91CF911F910F91FF909E
:103EE000EF900895089508950C94731F0C94741F17
:103EF0000E94761F6093F3017093F4018093F501A3
:103F00009093F6010C94611B0C94781F0F931F93F0
:103F10000091F3011091F4012091F5013091F60127
:103F2000602B712B822B932B1F910F910C94781F78
:103F30000F931F930091F3011091F4012091F5016B
:103F40003091F60160237123822393231F910F91F7
:103F50000C94781F0F931F930091F3011091F401BB
:103F60002091F5013091F601602771278227932770
:103F70001F910F910C94781F0C94731F0E94BC1F0B
:103F80006093EF017093F0018093F1019093F2013F
:103F90000C94611B60E070E0CB010C94BE1F0F938A
:103FA0001F9341E050E060E070E08A019B0104C093
:103FB000000F111F221F331F8A95D2F7C901B801C4
:103FC0001F910F910C94BE1F0F931F9341E050E07F
:103FD00060E070E004C0440F551F661F771F8A958C
:103FE000D2F78091EF019091F001A091F101B09191
:103FF000F2018A019B01082B192B2A2B3B2BC901AB
:10400000B8011F910F910C94BE1F0F931F9341E0B5
:1040100050E060E070E004C0440F551F661F771F3A
:104020008A95D2F740955095609570958091EF01F3
:104030009091F001A091F101B091F2018A019B01F0
:10404000082319232A233B23C901B8011F910F918B
:104050000C94BE1F0F931F9341E050E060E070E0AE
:1040600004C0440F551F661F771F8A95D2F78091B1
:10407000EF019091F001A091F101B091F2018A015C
:104080009B01082719272A273B27C901B8011F913F
:104090000F910C94BE1F0F931F930091EF0110918D
:1040A000F0012091F1013091F201602B712B822BF4
:1040B000932B1F910F910C94BE1F0F931F93009190
:1040C000EF011091F0012091F1013091F201602394
:1040D0007123822393231F910F910C94BE1F0F9382
:1040E0001F930091EF011091F0012091F1013091A7
:1040F000F20160277127822793271F910F910C945B
:10410000BE1F08952CE0929F800D1124E82FE695A4
:10411000E695E695877051E001C0550F8A95EAF75C
:1041200085E0E89FF0011124EF52FE4F20E030E0DF
:1041300070E04081CB01022E02C0969587950A94CB
:10414000E2F78170819584278523842781932F5FEF
:104150003F4F2530310569F708952CE0929F800D7F
:104160001124682F669566956695982F977085E05F
:10417000689FB001112440E050E080E0FB01E40FB3
:10418000F51FEF52FE4F208130E0092E02C0369518
:1041900027950A94E2F721703327042E01C0220FDD
:1041A0000A94EAF7822B4F5F5F4F4530510531F794
:1041B0000895BF92CF92DF92EF92FF920F931F93D9
:1041C000CF93DF938C01C090EF01D090F001E0908D
:1041D000F101F090F2018091F3019091F401A0912E
:1041E000F501B091F601C82AD92AEA2AFB2ACFE1C3
:1041F000D0E0D701C6010C2E04C0B695A7959795BF
:1042000087950A94D2F780FD04C0219790F7B12CCE
:1042100007C0BC2EB8018C2F0E949A090197A9F300
:104220008B2DDF91CF911F910F91FF90EF90DF9039
:10423000CF90BF900895CF93DF93EC010E94D920D7
:10424000BE010E949A09DF91CF9108951F93CF93E9
:10425000DF93EB0190919801992321F0CB010E940B
:104260001B2113C0882349F0CB010E94D920182FAD
:10427000682FCE010E94822004C0CB010E94AD2095
:10428000182FBE01812F0E949A09DF91CF911F91B3
:1042900008958091F701859585958595089580917C
:1042A000F701877008959091F701977081E009F404
:1042B00080E0089580910302089590910302892B74
:1042C000809303020895809590910302892380933F
:1042D0000302089510920302089590910202892B1F
:1042E0008093020208958095909102028923809321
:1042F0000202089510920202089590910102892B02
:104300008093010208958095909101028923809302
:10431000010208951092010208958091F801089514
:1043200008950C9490210C9491219091F801981784
:1043300021F08093F8010C94932108958091F80165
:10434000882329F01092F80180E00C9493210895BD
:10435000E0911001F0911101809103028083E091BE
:104360001001F0911101908180910202892B8083CC
:10437000E0911001F0911101908180910102892B4F
:1043800080838091F801882381F0E0911001F09101
:1043900011019081892B80838091100190911101EE
:1043A0000E94BA2281110E949E2180911001909159
:1043B00011010C94B6150C94902198E0899F9001FE
:1043C0001124262B2093F7010E94E41F8091F7010E
:1043D0008595859585950C94DB211092F70180E0F9
:1043E0000C94DB212091F701809582238093F701C3
:1043F000982F977079F430E0482F082E000C550B59
:104400002417350739F08595859585950E940520F7
:104410000C94ED21089590936301809362010895B7
:104420008295982F937344E0949F900111248C7C83
:1044300086958695282B822F8575880F2A7A269552
:10444000822B0895CF93DF93D92F0E941022C82F7B
:104450008D2F0E9410222C2F30E0322F2227A9010D
:10446000482BCA01DF91CF91089580E090E00E942F
:10447000962D21E08D3E9E4F09F020E0822F089579
:1044800082E090E00C94882D83E090E00C94882DDD
:1044900084E090E00C94882D682F84E090E00C94E8
:1044A0009C2D86E090E00C94882D682F86E090E0AB
:1044B0000C949C2DAB01BC018FE090E00C94AE2DD0
:1044C000AB01BC0183E190E00C94AE2D60E070E0A4
:1044D000CB010C94602260E070E0CB010E945A2274
:1044E0000C9466226DEE7EEF80E090E00E94BA2D83
:1044F00060E082E090E00E949C2D60E083E090E02C
:104500000E949C2D1092F3011092F4011092F5017B
:104510001092F60160E084E090E00E949C2D60E043
:1045200085E090E00E949C2D60E086E090E00E9493
:104530009C2D6FEF87E090E00E949C2D40E050E0C2
:10454000BA0188E090E00E94AE2D60E08DE090E03E
:104550000E949C2D40E050E0BA0188E190E00E946A
:10456000AE2D60E087E190E00E949C2D0C946B22C0
:104570000C947222FC01329697E080E0915029F071
:1045800021912223D9F38F5FF9CF08959C01FC017B
:1045900032969FEF80E04191461789F09F3F19F4D2
:1045A000411101C0982F8F5F8630A9F79F3F39F0E6
:1045B000F901E90FF11D97FDFA95628308950895B9
:1045C0009C012A5F3F4FFC014281461301C01282C9
:1045D000019682179307B9F708950C94C6220C949C
:1045E000E022029626E0FC0111922A95E9F708954F
:1045F00008950C94F8220C94F822CF930E94FB2289
:104600000E94DA0C0E94F922C0E08C2F0E942F0C2D
:10461000892B29F4CF5FC430C1F780E001C081E06D
:10462000CF9108950C94F8220C9412230E94142325
:1046300080914E02843061F11092050220E488E1FD
:1046400090E00FB6F894A895809360000FBE209379
:10465000600080E00E94E00680E00E9459070E940E
:10466000142383B7817F846083BF83B7816083BF56
:104670007894889583B78E7F83BF0FB6F894A895FA
:1046800080916000886180936000109260000FBE8E
:1046900008950C94F8220E94771B0E9420240E9407
:1046A000AA150E9459070C9449231F920F920FB626
:1046B0000F9211248F939F93AF93BF938091050224
:1046C000811113C08091430290914402A091450250
:1046D000B09146024196A11DB11D80934302909373
:1046E0004402A0934502B0934602BF91AF919F91BF
:1046F0008F910F900FBE0F901F90189582E084BD90
:1047000093E095BD9AEF97BD80936E0008952FB703
:10471000F8948091430290914402A0914502B09197
:1047200046022FBF0895CF92DF92EF92FF920F9330
:104730001F932FB7F8944091430250914402609127
:104740004502709146022FBF6A017B01EE24FF24CF
:104750008C0120E030E0C016D106E206F30610F42A
:10476000415051099A01281B390BC9011F910F9122
:10477000FF90EF90DF90CF90089578941F920F9262
:104780000FB60F9211248F939F93AF93BF93809195
:10479000430290914402A0914502B09146020196D5
:1047A000A11DB11D8093430290934402A093450242
:1047B000B0934602BF91AF919F918F910F900FBE22
:1047C0000F901F90189581E08093E00080E2809325
:1047D000D8001092C9008FE19EE40197F1F700C064
:1047E000000087E090EBDC01809357029093580221
:1047F000A0935902B0935A029CE088E10FB6F89456
:10480000A895809360000FBE90936000FFCF0E9438
:104810003522811102C00E94B8220E94402280935A
:1048200004020E94482290E090934802809347023D
:104830000E944422682F70E080E090E00C94841F76
:104840000E943522811102C00E94B8220E9451228A
:1048500080934902282F269530E02530310524F039
:1048600081708860809349028091490280FF02C074
:10487000869501C080E00C94E00620914902822FC9
:104880008695482F50E04430510544F48F5F982FAF
:10489000990F822F8170892B809349028091490260
:1048A0008160809349020E9455228091040280FF1A
:1048B0000FC08091490286951F928F9382EA98E0FB
:1048C0009F938F930E94FA050F900F900F900F9077
:1048D0008091490286950C94E00680914902982FB8
:1048E000969591F09158990F8170892B8093490288
:1048F0008E7F91E009F490E08091490290FB80F96D
:10490000809349020E9455228091040280FF0FC0CB
:104910008091490286951F928F938AE898E09F9331
:104920008F930E94FA050F900F900F900F90809137
:10493000490286950C94E0068091490280FD1DC0D5
:10494000816080934902813019F483E080934902A9
:10495000809149020E9455228091040280FF08C084
:1049600082E698E09F938F930E94FA050F900F9034
:104970008091490286950C94E00608958091490241
:1049800080FF14C08E7F809349020E94552280913F
:10499000040280FF08C08FE498E09F938F930E94E9
:1049A000FA050F900F9080E00C94E0060895CF93E5
:1049B000C0914902C1708091040280FF0CC01F9217
:1049C000CF9384E798E09F938F930E94FA050F900E
:1049D0000F900F900F90CC2319F0CF910C94BE2420
:1049E000CF910C949C2490914902892F86958F5FDA
:1049F0008F779170853028F4880F892B8093490236
:104A000002C090934902809149028E7F91E009F49F
:104A100090E08091490290FB80F9809349020E94C6
:104A200055228091040280FF0FC080914902869533
:104A30001F928F938BE398E09F938F930E94FA05C8
:104A40000F900F900F900F908091490286950C94D3
:104A5000E006853008F084E0880F9091490291705B
:104A6000892B809349028E7F91E009F490E0809138
:104A7000490290FB80F9809349020E94552280915F
:104A8000490286950C94E0068091110208950895DC
:104A90009FB7F894109208029FBF90914E029430F5
:104AA00009F057C09091E9009F703091EC00232FDE
:104AB000217030FD20E8922B23E02093E900209123
:104AC000EB0020FF43C02091EE0027FF3FC0209164
:104AD0000602222321F02091E80025FF37C0109222
:104AE000060226E03091E80035FD15C030914E02F7
:104AF000343061F53091EB0035FD28C0215021F4B0
:104B000081E08093060222C0EFE9FFE03197F1F7E0
:104B100000C00000E7CF8093F1008091E80085FDA0
:104B20000AC08091E80080FFFCCF8091E8008E777A
:104B30008093E80006C08FB7F89421E02093080224
:104B40008FBF9F709093E90080E008959F709093CD
:104B5000E9008FEF08950F931F93CF93DF9300D059
:104B60001F92CDB7DEB78C010E943B28823011F036
:104B7000843021F584E089831B830A8382E080935B
:104B8000E9008FEF9091E800815095FD06C095ED0A
:104B90009A95F1F700008111F5CF8091E80085FF2B
:104BA0000DC040E050E063E070E0CE0101960E944D
:104BB00058288091E8008E778093E8000F900F903E
:104BC0000F90DF91CF911F910F910895CF93DF93B5
:104BD00000D01F92CDB7DEB720914E02243031F5C0
:104BE00023E02983805891099B838A8382E0809304
:104BF000E9008FEF9091E800815095FD06C095ED9A
:104C00009A95F1F700008111F5CF8091E80085FFBA
:104C10000DC040E050E063E070E0CE0101960E94DC
:104C200058288091E8008E778093E8000F900F90CD
:104C30000F90DF91CF910895CF93DF93EC010E9405
:104C40003B28823011F0843039F581E08093E9000F
:104C50008FEF9091E800815095FD06C095ED9A95F3
:104C6000F1F700008111F5CF8091E80085FF14C0B5
:104C700040E050E068E070E0CE010E94582880914A
:104C8000E8008E778093E80088E0FE01A9E0B2E0BA
:104C900001900D928A95E1F7DF91CF9108958FED04
:104CA00098E00E94610580914D02811109C00E9427
:104CB000E9290E94462A8091E20084608093E20004
:104CC00008958BED98E00E94610510924D020895C1
:104CD00087ED98E00C94610583ED98E00C946105F4
:104CE0008FEC98E00E9461050C944B232091070201
:104CF0002F5F822F62E30E94052D992319F02093E4
:104D0000070208951092070280910802882371F12A
:104D100080914E02843041F58091E9008F7020919E
:104D2000EC00922F917020FD90E8892B93E09093F6
:104D3000E9009091EB0090FF14C09091EE0097FF76
:104D400010C09091E80095FF03C01092F100F9CFD8
:104D50009091E80090FF05C09091E8009E779093B5
:104D6000E8008F708093E90010920802089542E0F5
:104D700061EC81E00E94622942E261EC82E00E94E3
:104D8000622942E261EC83E00C9462298091500236
:104D9000833009F460C030F4813071F0823009F45E
:104DA00099C008958A3009F485C08B3009F46BC02E
:104DB000893009F0A7C020C080914F02813A09F0E4
:104DC000A1C08091E800877F8093E8008091530222
:104DD00090915402892B21F468E089E092E003C0AD
:104DE00060E080E090E070E00E94A3288091E800FD
:104DF0008B778093E800089580914F02813209F00B
:104E000081C08091530290915402029708F07AC0B9
:104E10008091E800877F8093E8008091E80082FD20
:104E200005C080914E028111F8CF6CC02091F30033
:104E30008091F20090E0922B029729F48091F1008A
:104E40008B7F813021F48091F10080931102809159
:104E5000E8008B7753C080914F02813A09F052C02D
:104E60008091530290915402892B09F04BC080919C
:104E7000E800877F8093E8008091E80080FFFCCF06
:104E800080911C0136C080914F028132D9F580910A
:104E9000530290915402892BA9F58091E800877FF5
:104EA0008093E8000E9497298091510280931C0111
:104EB0000C94771B80914F02813221F58091E8009C
:104EC000877F8093E8000E94972980915202809307
:104ED0001202089580914F02813AA1F48091E80076
:104EE000877F8093E8008091E80080FFFCCF80916D
:104EF00012028093F1008091E8008E778093E800A1
:104F00000C949729089584B7877F84BF0FB6F894CF
:104F1000A895809160008861809360001092600085
:104F20000FBE80E880936100109261000E943B16E2
:104F30000E94E9290E94462A8091E20084608093C1
:104F4000E20088E495E20E940B2278940E94DA2C19
:104F50000E94431682E191E00E94A5158EEB98E035
:104F60000E94610580914E02853089F48AEB98E0B9
:104F70000E9461050E94162380914C02882391F3C0
:104F80000E94FD22882371F30E944228EBCF0E94E9
:104F900077160E942114E6CF0C94CE27292F3327B1
:104FA00023303105C9F060F42130310581F0223021
:104FB000310509F047C08BE590E023E139E046C0B8
:104FC0002132310511F12232310561F13BC082E11C
:104FD00090E02EE639E03AC099278130910561F0E2
:104FE00040F08230910559F0039761F5E3EEF8E067
:104FF00008C0EFE0F9E005C0EDEFF8E002C0E9EE2F
:10500000F8E0849190E09F0121C063307105D0F4F5
:10501000660F771FFB01E55AFE4F2081318189E041
:1050200090E014C06330710568F4FB01EE0FFF1FC0
:10503000EB5AFE4F20813181FB01EE5AFE4F8081F9
:1050400090E004C080E090E020E030E0FA0131839D
:10505000208308950895CF93C82F0E942A28C093D3
:105060001302CF91089580914E02843011F081E0B7
:10507000089582E0089580911302811102C00C947A
:105080003328089580E189BD82E189BD09B400FE1D
:10509000FDCF8091D8008F7D8093D8008091E00073
:1050A00082608093E0008091E00081FDFCCF089554
:1050B000CF92DF92EF92FF920F931F93CF93DF93E4
:1050C000EC018B017A010E94B629811133C0E114F1
:1050D000F10439F0F70180819181081B190BC80F89
:1050E000D91FC12CD12C0115110519F18091E800AF
:1050F00085FD16C08091E8008E778093E800E1146A
:10510000F10449F0F70180819181C80ED91ED18246
:10511000C08285E00FC00E94B629882321F30AC00F
:1051200089918093F10001501109FFEFCF1ADF0A36
:10513000DACF80E0DF91CF911F910F91FF90EF9038
:10514000DF90CF9008952091550230915602261796
:10515000370748F06115710539F42091E8002E7782
:105160002093E80001C0B901FC0120E06115710540
:1051700079F180914E028823F1F18530F1F180912F
:10518000E80083FD3CC08091E80082FD2EC0809144
:10519000E80080FFEBCF2091F3008091F20090E0D7
:1051A000922B6115710551F08830910538F42191E9
:1051B0002093F100615071090196F3CF21E0089727
:1051C00009F020E08091E8008E778093E800CECF50
:1051D0002111CFCF0AC080914E02882361F0853023
:1051E00061F08091E80083FD0AC08091E80082FFB1
:1051F000F2CF80E0089582E0089583E0089581E091
:10520000089520915502309156022617370748F02D
:105210006115710539F42091E8002E772093E8009C
:1052200001C0B901FC0120E06115710591F1809187
:105230004E02882309F440C0853009F43FC08091B4
:10524000E80083FD3DC08091E80082FD2FC0809181
:10525000E80080FFE9CF2091F3008091F20090E018
:10526000922B6115710559F08830910540F4249115
:105270002093F1003196615071090196F2CF21E03F
:10528000089709F020E08091E8008E778093E8008D
:10529000CBCF2111CCCF0AC080914E02882361F080
:1052A000853061F08091E80083FD0AC08091E800BC
:1052B00082FFF2CF80E0089582E0089583E00895B0
:1052C00081E00895982F973068F59093E90098173A
:1052D00039F07091EC002091ED005091F00003C086
:1052E000242F762F50E021FD02C09F5FECCF30913C
:1052F000EB003E7F3093EB003091ED003D7F30932B
:10530000ED003091EB0031603093EB007093EC00D6
:105310002093ED005093F0002091EE0027FDE5CFA3
:1053200080E008958F708093E90081E00895809176
:105330004F0287FF11C08091E80082FD05C0809177
:105340004E028111F8CF11C08091E8008B770BC01D
:1053500080914E02882349F08091E80080FFF8CFC9
:105360008091E8008E778093E80008952091E40012
:105370003091E50095E64091EC00842F817040FF6C
:1053800023C08091E80080FD1DC080914E028823DB
:1053900099F0853099F08091EB0085FD11C0409126
:1053A000E4005091E5002417350729F3915011F0DE
:1053B0009A01E1CF84E0089582E0089583E00895A2
:1053C00081E0089580E008954091E80042FFDDCF3C
:1053D00008950E94572A0E945F2AE0EEF0E0808143
:1053E00081608083E8EDF0E080818F77808319BC55
:1053F000A7EDB0E08C918E7F8C9380818F7E80832F
:1054000010924D0208950F931F93CF93DF930E9444
:10541000572A0E945F2AC8EDD0E088818F77888361
:1054200088818068888388818F7D888319BC1092E9
:105430004E0210924A0210924C0210924B0200EE61
:1054400010E0F80180818B7F808388818160888370
:1054500042E060E080E00E946229E1EEF0E08081BD
:105460008E7F8083E2EEF0E08081816080838081A6
:1054700088608083F80180818E7F8083888180614D
:105480008883DF91CF911F910F910895E8EDF0E0AF
:1054900080818F7E8083E7EDF0E080818160808372
:1054A00084E082BF81E080934D020C94032AE8EDF2
:1054B000F0E080818E7F80831092E2000895109248
:1054C000DA001092E10008951F920F920FB60F922A
:1054D00011242F933F934F935F936F937F938F93F9
:1054E0009F93AF93BF93EF93FF938091E10082FF6F
:1054F0000BC08091E20082FF07C08091E1008B7FAA
:105500008093E1000E9476268091DA0080FF1FC020
:105510008091D80080FF1BC08091DA008E7F80933D
:10552000DA008091D90080FF0DC080E189BD82E161
:1055300089BD09B400FEFDCF81E080934E020E9438
:105540004F2605C019BC10924E020E946126809120
:10555000E10080FF19C08091E20080FF15C08091BA
:10556000E2008E7F8093E2008091E2008061809370
:10557000E2008091D80080628093D80019BC85E059
:1055800080934E020E946C268091E10084FF30C01F
:105590008091E20084FF2CC080E189BD82E189BD59
:1055A00009B400FEFDCF8091D8008F7D8093D80094
:1055B0008091E1008F7E8093E1008091E2008F7EF8
:1055C0008093E2008091E20081608093E20080910C
:1055D0004A02882311F084E007C08091E30087FD30
:1055E00002C081E001C083E080934E020E947026D9
:1055F0008091E10083FF29C08091E20083FF25C0F4
:105600008091E100877F8093E10082E080934E02E9
:1056100010924A028091E1008E7F8093E100809198
:10562000E2008E7F8093E2008091E20080618093AF
:10563000E20042E060E080E00E9462298091F00098
:1056400088608093F0000E946826FF91EF91BF91DF
:10565000AF919F918F917F916F915F914F913F910A
:105660002F910F900FBE0F901F9018951F920F92C1
:105670000FB60F9211242F933F934F935F936F9325
:105680007F938F939F93AF93BF93CF93DF93EF93CA
:10569000FF93C091E900CF708091EC00D82FD170BA
:1056A00080FDD0E81092E9008091F000877F809320
:1056B000F00078940E947A2B1092E9008091F0001B
:1056C00088608093F000CD2BCF70C093E900FF91EC
:1056D000EF91DF91CF91BF91AF919F918F917F918A
:1056E0006F915F914F913F912F910F900FBE0F904F
:1056F0001F9018951F93CF93DF93CDB7DEB7AA976E
:105700000FB6F894DEBF0FBECDBFEFE4F2E080919C
:10571000F100819322E0E735F207C9F70E94C6261F
:105720008091E80083FF2EC180914F02909150023A
:10573000492F50E04A30510508F024C1FA01E556DE
:10574000FF4F0C945B2D803821F0823809F01AC18C
:1057500008C080914B0290914C02992389F082609D
:105760000FC0809153028F70873008F00BC1809377
:10577000E9008091EB0085FB882780F91092E90011
:105780009091E800977F9093E8008093F100109249
:10579000F100D1C0282F2D7F09F0F4C0882319F023
:1057A000823061F0EFC080915102813009F0EAC08F
:1057B000933009F080E080934C022EC0809151021A
:1057C00081112AC0809153028F702FEF280F26304D
:1057D00008F0D8C08093E9002091EB0020FF1CC0A6
:1057E000933021F48091EB00806214C09091EB0023
:1057F00090619093EB0021E030E0A90102C0440FDA
:10580000551F8A95E2F74093EA001092EA008091D2
:10581000EB0088608093EB001092E9008091E80033
:10582000877F8093E8000E949729ACC08111AAC0AD
:10583000109151021F778091E3008078812B809333
:10584000E3008091E800877F8093E8000E94972919
:105850008091E80080FFFCCF8091E3008068809316
:10586000E300111102C082E001C083E080934E0288
:1058700089C08058823008F085C080915102909193
:1058800052028C3D53E0950779F583E08A838AE2E2
:1058900089834FB7F894DE01139620E03EE051E291
:1058A000E32FF0E050935700E49120FF03C0E2950E
:1058B000EF703F5FEF708E2F90E0EA3010F0C796E8
:1058C00001C0C0968D939D932F5F243149F74FBF40
:1058D0008091E800877F8093E8006AE270E0CE0163
:1058E00001960E94A32816C0609153027091540241
:1058F000AE014F5F5F4F0E94CC27BC01892B09F49A
:1059000041C09091E800977F9093E80089819A8147
:105910000E9401298091E8008B778093E80032C0D3
:10592000803881F58091E800877F8093E80080913E
:105930004A028093F1008091E8008E7772CF811146
:1059400021C0809151029091520299270297D4F47C
:105950008091E800877F8093E800809151028093D6
:105960004A020E94972980914A02811106C08091C3
:10597000E30087FD02C081E001C084E080934E0215
:105980000E94B7268091E80083FF0AC08091E8005A
:10599000877F8093E8008091EB0080628093EB002A
:1059A000AA960FB6F894DEBF0FBECDBFDF91CF91A0
:1059B0001F910895CF9380914E028823A1F0C0914A
:1059C000E900CF709091EC00892F817090FD80E804
:1059D000C82B1092E9008091E80083FD0E947A2B89
:1059E000CF70C093E900CF910895DB018F939F930F
:1059F0000E94702DBF91AF91A29F800D911DA39F1A
:105A0000900DB29F900D11240895991B79E004C068
:105A1000991F961708F0961B881F7A95C9F78095ED
:105A20000895AA1BBB1B51E107C0AA1FBB1FA617E5
:105A3000B70710F0A61BB70B881F991F5A95A9F737
:105A400080959095BC01CD01089597FB072E16F423
:105A5000009407D077FD09D00E94112D07FC05D0D6
:105A60003EF4909581959F4F0895709561957F4F75
:105A70000895A1E21A2EAA1BBB1BFD010DC0AA1F8F
:105A8000BB1FEE1FFF1FA217B307E407F50720F0A7
:105A9000A21BB30BE40BF50B661F771F881F991F22
:105AA0001A9469F760957095809590959B01AC016B
:105AB000BD01CF010895EE0FFF1F0590F491E02D79
:105AC0000994A29FB001B39FC001A39F700D811DD7
:105AD0001124911DB29F700D811D1124911D0895F7
